{
  "transactions": [
    {
      "hash": "0xb77da4fae966b802f0e50a900dd9a86564007c7ff253148a3a98ce267301fee1",
      "transactionType": "CALL",
      "contractName": null,
      "contractAddress": "0x7e71ef01e1f34ea95d0da3dd6c341482d4f77e51",
      "function": "applyChainUpdates((uint64,bool,bytes,bytes,(bool,uint128,uint128),(bool,uint128,uint128))[])",
      "arguments": [
        "[(6898391096552792247, true, 0x0000000000000000000000005d59cd65a4ef647ca5febd8db7e544bd7b9dc7c1, 0x00000000000000000000000041bf6e505c3c7de0cac425919320cf8fa7feca82, (false, 0, 0), (false, 0, 0))]"
      ],
      "transaction": {
        "from": "0x667c1abd4e25be048b8217f90fc576780cca8218",
        "to": "0x7e71ef01e1f34ea95d0da3dd6c341482d4f77e51",
        "gas": "0x525dc",
        "value": "0x0",
        "input": "0xdb6327dc0000000000000000000000000000000000000000000000000000000000000020000000000000000000000000000000000000000000000000000000000000000100000000000000000000000000000000000000000000000000000000000000200000000000000000000000000000000000000000000000005fbc02272fbf20b700000000000000000000000000000000000000000000000000000000000000010000000000000000000000000000000000000000000000000000000000000140000000000000000000000000000000000000000000000000000000000000018000000000000000000000000000000000000000000000000000000000000000000000000000000000000000000000000000000000000000000000000000000000000000000000000000000000000000000000000000000000000000000000000000000000000000000000000000000000000000000000000000000000000000000000000000000000000000000000000000000000000000000000000000000000000000000000000000000000000000000000000000000000000000000000000000000000000000000000000000000000000000000000000000000000000000200000000000000000000000005d59cd65a4ef647ca5febd8db7e544bd7b9dc7c1000000000000000000000000000000000000000000000000000000000000002000000000000000000000000041bf6e505c3c7de0cac425919320cf8fa7feca82",
        "nonce": "0x1ee",
        "chainId": "0xaa36a7"
      },
      "additionalContracts": [],
      "isFixedGasLimit": false
    }
  ],
  "receipts": [
    {
      "status": "0x1",
      "cumulativeGasUsed": "0xebab50",
      "logs": [
        {
          "address": "0x7e71ef01e1f34ea95d0da3dd6c341482d4f77e51",
          "topics": [
            "0x8d340f17e19058004c20453540862a9c62778504476f6756755cb33bcd6c38c2"
          ],
          "data": "0x0000000000000000000000000000000000000000000000005fbc02272fbf20b70000000000000000000000000000000000000000000000000000000000000100000000000000000000000000000000000000000000000000000000000000000000000000000000000000000000000000000000000000000000000000000000000000000000000000000000000000000000000000000000000000000000000000000000000000000000000000000000000000000000000000000000000000000000000000000000000000000000000000000000000000000000000000000000000000000000000000000000000000000000000000000000000000000000000000000000000000000000000000000000000000000000000000000000000000002000000000000000000000000041bf6e505c3c7de0cac425919320cf8fa7feca82",
          "blockHash": "0x5b99481adc2d6f6f8711b92b435041c11af3f390b17947a6476d4e37f9981b38",
          "blockNumber": "0x88d171",
          "blockTimestamp": "0x689ae148",
          "transactionHash": "0xb77da4fae966b802f0e50a900dd9a86564007c7ff253148a3a98ce267301fee1",
          "transactionIndex": "0x64",
          "logIndex": "0xd8",
          "removed": false
        }
      ],
      "logsBloom": "0x00000000000000400000000000000000000000000000000000000000000000000000000000000000000000000000000000000000000000000004000000000000000000000000000000000000000000000080000000000000000000000000000000000000000000000000000000000000000000000000000000000000000000020000000000000000000000000000000000000000000000000000000000000000000000000004000000000000000000000000000000000000000000000000000000000000000000000000000000000000000000000000000000000000000000000000000000000000000000000000000000000000000000000100000000000000",
      "type": "0x2",
      "transactionHash": "0xb77da4fae966b802f0e50a900dd9a86564007c7ff253148a3a98ce267301fee1",
      "transactionIndex": "0x64",
      "blockHash": "0x5b99481adc2d6f6f8711b92b435041c11af3f390b17947a6476d4e37f9981b38",
      "blockNumber": "0x88d171",
      "gasUsed": "0x3ba1c",
      "effectiveGasPrice": "0x1771f0",
      "from": "0x667c1abd4e25be048b8217f90fc576780cca8218",
      "to": "0x7e71ef01e1f34ea95d0da3dd6c341482d4f77e51",
      "contractAddress": null
    }
  ],
  "libraries": [],
  "pending": [],
  "returns": {},
  "timestamp": 1754980680790,
  "chain": 11155111,
  "commit": "0fe5db8"
}