{
  "transactions": [
    {
      "hash": "0xb7889049e5841e247f9bc45439065bae4fc07186246a37ce3fb82bbdee182369",
      "transactionType": "CALL",
      "contractName": null,
      "contractAddress": "0xbe40a17f84a36df8facd522227376ce28d9faf79",
      "function": "applyChainUpdates((uint64,bool,bytes,bytes,(bool,uint128,uint128),(bool,uint128,uint128))[])",
      "arguments": [
        "[(6898391096552792247, true, 0x000000000000000000000000aed45954151b288b115c9bd9aabbab10c614c888, 0x000000000000000000000000abc0a18ec97ec2030c52404a97b2620e02ccabd5, (false, 0, 0), (false, 0, 0))]"
      ],
      "transaction": {
        "from": "0x667c1abd4e25be048b8217f90fc576780cca8218",
        "to": "0xbe40a17f84a36df8facd522227376ce28d9faf79",
        "gas": "0x525dc",
        "value": "0x0",
        "input": "0xdb6327dc0000000000000000000000000000000000000000000000000000000000000020000000000000000000000000000000000000000000000000000000000000000100000000000000000000000000000000000000000000000000000000000000200000000000000000000000000000000000000000000000005fbc02272fbf20b70000000000000000000000000000000000000000000000000000000000000001000000000000000000000000000000000000000000000000000000000000014000000000000000000000000000000000000000000000000000000000000001800000000000000000000000000000000000000000000000000000000000000000000000000000000000000000000000000000000000000000000000000000000000000000000000000000000000000000000000000000000000000000000000000000000000000000000000000000000000000000000000000000000000000000000000000000000000000000000000000000000000000000000000000000000000000000000000000000000000000000000000000000000000000000000000000000000000000000000000000000000000000000000000000000000000000020000000000000000000000000aed45954151b288b115c9bd9aabbab10c614c8880000000000000000000000000000000000000000000000000000000000000020000000000000000000000000abc0a18ec97ec2030c52404a97b2620e02ccabd5",
        "nonce": "0x202",
        "chainId": "0xaa36a7"
      },
      "additionalContracts": [],
      "isFixedGasLimit": false
    }
  ],
  "receipts": [
    {
      "status": "0x1",
      "cumulativeGasUsed": "0x231cca9",
      "logs": [
        {
          "address": "0xbe40a17f84a36df8facd522227376ce28d9faf79",
          "topics": [
            "0x8d340f17e19058004c20453540862a9c62778504476f6756755cb33bcd6c38c2"
          ],
          "data": "0x0000000000000000000000000000000000000000000000005fbc02272fbf20b700000000000000000000000000000000000000000000000000000000000001000000000000000000000000000000000000000000000000000000000000000000000000000000000000000000000000000000000000000000000000000000000000000000000000000000000000000000000000000000000000000000000000000000000000000000000000000000000000000000000000000000000000000000000000000000000000000000000000000000000000000000000000000000000000000000000000000000000000000000000000000000000000000000000000000000000000000000000000000000000000000000000000000000000000000020000000000000000000000000abc0a18ec97ec2030c52404a97b2620e02ccabd5",
          "blockHash": "0xbfb467fd5cbfea480d3d4b1423eb30ec4eb648cfef78549479db99d183f79a0a",
          "blockNumber": "0x88e208",
          "blockTimestamp": "0x689babbc",
          "transactionHash": "0xb7889049e5841e247f9bc45439065bae4fc07186246a37ce3fb82bbdee182369",
          "transactionIndex": "0x69",
          "logIndex": "0xd7",
          "removed": false
        }
      ],
      "logsBloom": "0x00000000000000400000000000000000000010000000000000000000000000000000000000000000000000000000000000000000000000000004000000000000000000000000000000000000000000000000000000000000000000000000000000000000000000000000000000000000000000000000000000000000000000000000000000000000000000040000000000000000000000000000000000000000000000000000000000000000000000000000000000000000000000000000000000000000000000010000000000000000000000000000000000000000000000000000000000000000000000000000000000000000000000000100000000000000",
      "type": "0x2",
      "transactionHash": "0xb7889049e5841e247f9bc45439065bae4fc07186246a37ce3fb82bbdee182369",
      "transactionIndex": "0x69",
      "blockHash": "0xbfb467fd5cbfea480d3d4b1423eb30ec4eb648cfef78549479db99d183f79a0a",
      "blockNumber": "0x88e208",
      "gasUsed": "0x3ba1c",
      "effectiveGasPrice": "0x1e62a5",
      "from": "0x667c1abd4e25be048b8217f90fc576780cca8218",
      "to": "0xbe40a17f84a36df8facd522227376ce28d9faf79",
      "contractAddress": null
    }
  ],
  "libraries": [],
  "pending": [],
  "returns": {},
  "timestamp": 1755032509001,
  "chain": 11155111,
  "commit": "0fe5db8"
}