{
  "transactions": [
    {
      "hash": "0xb3daa8be6fea4038902c41fdf4d43e90859bb3ddf7b1a28643e8ffba2ed6c14a",
      "transactionType": "CALL",
      "contractName": null,
      "contractAddress": "0xb8fbf532e20316372a355b6f70c53b2089ddb627",
      "function": "applyChainUpdates((uint64,bool,bytes,bytes,(bool,uint128,uint128),(bool,uint128,uint128))[])",
      "arguments": [
        "[(6898391096552792247, true, 0x00000000000000000000000068dd6a0195b2588e05c87be1e2643137658c9d79, 0x000000000000000000000000cce3aa8c657ccc5b9af3037c9dd2dfffeabde889, (false, 0, 0), (false, 0, 0))]"
      ],
      "transaction": {
        "from": "0x667c1abd4e25be048b8217f90fc576780cca8218",
        "to": "0xb8fbf532e20316372a355b6f70c53b2089ddb627",
        "gas": "0x525dc",
        "value": "0x0",
        "input": "0xdb6327dc0000000000000000000000000000000000000000000000000000000000000020000000000000000000000000000000000000000000000000000000000000000100000000000000000000000000000000000000000000000000000000000000200000000000000000000000000000000000000000000000005fbc02272fbf20b7000000000000000000000000000000000000000000000000000000000000000100000000000000000000000000000000000000000000000000000000000001400000000000000000000000000000000000000000000000000000000000000180000000000000000000000000000000000000000000000000000000000000000000000000000000000000000000000000000000000000000000000000000000000000000000000000000000000000000000000000000000000000000000000000000000000000000000000000000000000000000000000000000000000000000000000000000000000000000000000000000000000000000000000000000000000000000000000000000000000000000000000000000000000000000000000000000000000000000000000000000000000000000000000000000000000000002000000000000000000000000068dd6a0195b2588e05c87be1e2643137658c9d790000000000000000000000000000000000000000000000000000000000000020000000000000000000000000cce3aa8c657ccc5b9af3037c9dd2dfffeabde889",
        "nonce": "0x20c",
        "chainId": "0xaa36a7"
      },
      "additionalContracts": [],
      "isFixedGasLimit": false
    }
  ],
  "receipts": [
    {
      "status": "0x1",
      "cumulativeGasUsed": "0xff2b32",
      "logs": [
        {
          "address": "0xb8fbf532e20316372a355b6f70c53b2089ddb627",
          "topics": [
            "0x8d340f17e19058004c20453540862a9c62778504476f6756755cb33bcd6c38c2"
          ],
          "data": "0x0000000000000000000000000000000000000000000000005fbc02272fbf20b700000000000000000000000000000000000000000000000000000000000001000000000000000000000000000000000000000000000000000000000000000000000000000000000000000000000000000000000000000000000000000000000000000000000000000000000000000000000000000000000000000000000000000000000000000000000000000000000000000000000000000000000000000000000000000000000000000000000000000000000000000000000000000000000000000000000000000000000000000000000000000000000000000000000000000000000000000000000000000000000000000000000000000000000000000020000000000000000000000000cce3aa8c657ccc5b9af3037c9dd2dfffeabde889",
          "blockHash": "0x7af1d814c82b8c96f6d5b46fee6a773b606825d0e08206fb1994a831af559001",
          "blockNumber": "0x88e25c",
          "blockTimestamp": "0x689bafd0",
          "transactionHash": "0xb3daa8be6fea4038902c41fdf4d43e90859bb3ddf7b1a28643e8ffba2ed6c14a",
          "transactionIndex": "0x60",
          "logIndex": "0xbb",
          "removed": false
        }
      ],
      "logsBloom": "0x00000000000000400000000000000000000000000000000000000000000000000000000000000000000000000000000000000000000000000004000000040000000000000000000000000000000000000000000000000000000000000000000000000000000000000000000000000000000000000000000000000000000000000000000000000000000000000000000000000000000000000000000000000000000000000000000000000000000000000000000000000000000000000000000000000000000000000000000000000000000000000000000000000000000000000000004000000000000000000000000000000001000000000100000000000000",
      "type": "0x2",
      "transactionHash": "0xb3daa8be6fea4038902c41fdf4d43e90859bb3ddf7b1a28643e8ffba2ed6c14a",
      "transactionIndex": "0x60",
      "blockHash": "0x7af1d814c82b8c96f6d5b46fee6a773b606825d0e08206fb1994a831af559001",
      "blockNumber": "0x88e25c",
      "gasUsed": "0x3ba1c",
      "effectiveGasPrice": "0x1fa767",
      "from": "0x667c1abd4e25be048b8217f90fc576780cca8218",
      "to": "0xb8fbf532e20316372a355b6f70c53b2089ddb627",
      "contractAddress": null
    }
  ],
  "libraries": [],
  "pending": [],
  "returns": {},
  "timestamp": 1755033551842,
  "chain": 11155111,
  "commit": "0fe5db8"
}