{
  "transactions": [
    {
      "hash": "0xa0d6a9dc6bfee3a7f55dc9a0916df4588ae78922df0ae75310212164e80de5a7",
      "transactionType": "CALL",
      "contractName": null,
      "contractAddress": "0x58253b7ea272f5c2de4b2efa0c47105282b6864e",
      "function": "applyChainUpdates((uint64,bool,bytes,bytes,(bool,uint128,uint128),(bool,uint128,uint128))[])",
      "arguments": [
        "[(6898391096552792247, true, 0x0000000000000000000000007f1be816ca040c81eb98b72e69fb8abe4e186238, 0x000000000000000000000000100c7582cba495d9883bead7294c531356a5d5c8, (false, 0, 0), (false, 0, 0))]"
      ],
      "transaction": {
        "from": "0x667c1abd4e25be048b8217f90fc576780cca8218",
        "to": "0x58253b7ea272f5c2de4b2efa0c47105282b6864e",
        "gas": "0x525dc",
        "value": "0x0",
        "input": "0xdb6327dc0000000000000000000000000000000000000000000000000000000000000020000000000000000000000000000000000000000000000000000000000000000100000000000000000000000000000000000000000000000000000000000000200000000000000000000000000000000000000000000000005fbc02272fbf20b700000000000000000000000000000000000000000000000000000000000000010000000000000000000000000000000000000000000000000000000000000140000000000000000000000000000000000000000000000000000000000000018000000000000000000000000000000000000000000000000000000000000000000000000000000000000000000000000000000000000000000000000000000000000000000000000000000000000000000000000000000000000000000000000000000000000000000000000000000000000000000000000000000000000000000000000000000000000000000000000000000000000000000000000000000000000000000000000000000000000000000000000000000000000000000000000000000000000000000000000000000000000000000000000000000000000000200000000000000000000000007f1be816ca040c81eb98b72e69fb8abe4e1862380000000000000000000000000000000000000000000000000000000000000020000000000000000000000000100c7582cba495d9883bead7294c531356a5d5c8",
        "nonce": "0x1da",
        "chainId": "0xaa36a7"
      },
      "additionalContracts": [],
      "isFixedGasLimit": false
    }
  ],
  "receipts": [
    {
      "status": "0x1",
      "cumulativeGasUsed": "0xd4cfb1",
      "logs": [
        {
          "address": "0x58253b7ea272f5c2de4b2efa0c47105282b6864e",
          "topics": [
            "0x8d340f17e19058004c20453540862a9c62778504476f6756755cb33bcd6c38c2"
          ],
          "data": "0x0000000000000000000000000000000000000000000000005fbc02272fbf20b700000000000000000000000000000000000000000000000000000000000001000000000000000000000000000000000000000000000000000000000000000000000000000000000000000000000000000000000000000000000000000000000000000000000000000000000000000000000000000000000000000000000000000000000000000000000000000000000000000000000000000000000000000000000000000000000000000000000000000000000000000000000000000000000000000000000000000000000000000000000000000000000000000000000000000000000000000000000000000000000000000000000000000000000000000020000000000000000000000000100c7582cba495d9883bead7294c531356a5d5c8",
          "blockHash": "0x11e2eb5a3c630be6edb402632f78c4b478cef598e2e5db1bbae5bc36e17a47df",
          "blockNumber": "0x88d0eb",
          "blockTimestamp": "0x689adb00",
          "transactionHash": "0xa0d6a9dc6bfee3a7f55dc9a0916df4588ae78922df0ae75310212164e80de5a7",
          "transactionIndex": "0x5e",
          "logIndex": "0xda",
          "removed": false
        }
      ],
      "logsBloom": "0x00000000000000400000000000000000000008000000000000000000000000000000000000000000000000000000000000000000000000000004000000000000000000000000000000000000000000000001000000000000000000000000000000000000000000000000000000000000000000000000000000000000000000000000000000000000000000000000000000000000000000000000000000000000000000000000000000000000000000000000000000000000000000000000000000000000000000000000000000000000000000000000000000000000000000000000000000000000000000000000000000000000000000004100000000000000",
      "type": "0x2",
      "transactionHash": "0xa0d6a9dc6bfee3a7f55dc9a0916df4588ae78922df0ae75310212164e80de5a7",
      "transactionIndex": "0x5e",
      "blockHash": "0x11e2eb5a3c630be6edb402632f78c4b478cef598e2e5db1bbae5bc36e17a47df",
      "blockNumber": "0x88d0eb",
      "gasUsed": "0x3ba1c",
      "effectiveGasPrice": "0x10a2c0",
      "from": "0x667c1abd4e25be048b8217f90fc576780cca8218",
      "to": "0x58253b7ea272f5c2de4b2efa0c47105282b6864e",
      "contractAddress": null
    }
  ],
  "libraries": [],
  "pending": [],
  "returns": {},
  "timestamp": 1754979073624,
  "chain": 11155111,
  "commit": "0fe5db8"
}