{
  "transactions": [
    {
      "hash": "0xd069a6b9998cabcd79616462b9d048495c871f2d91a8f4de48f51c6c793857d3",
      "transactionType": "CALL",
      "contractName": null,
      "contractAddress": "0xf07ee2d604f51be3e42a5420328cf9f1ede62253",
      "function": "applyChainUpdates((uint64,bool,bytes,bytes,(bool,uint128,uint128),(bool,uint128,uint128))[])",
      "arguments": [
        "[(6898391096552792247, true, 0x00000000000000000000000095dd27c0e4e2e7026f5265cd75792a6464d0e5bf, 0x00000000000000000000000097ce613943a044f2b34af302f45aea4ac4f0188d, (false, 0, 0), (false, 0, 0))]"
      ],
      "transaction": {
        "from": "0x667c1abd4e25be048b8217f90fc576780cca8218",
        "to": "0xf07ee2d604f51be3e42a5420328cf9f1ede62253",
        "gas": "0x525dc",
        "value": "0x0",
        "input": "0xdb6327dc0000000000000000000000000000000000000000000000000000000000000020000000000000000000000000000000000000000000000000000000000000000100000000000000000000000000000000000000000000000000000000000000200000000000000000000000000000000000000000000000005fbc02272fbf20b7000000000000000000000000000000000000000000000000000000000000000100000000000000000000000000000000000000000000000000000000000001400000000000000000000000000000000000000000000000000000000000000180000000000000000000000000000000000000000000000000000000000000000000000000000000000000000000000000000000000000000000000000000000000000000000000000000000000000000000000000000000000000000000000000000000000000000000000000000000000000000000000000000000000000000000000000000000000000000000000000000000000000000000000000000000000000000000000000000000000000000000000000000000000000000000000000000000000000000000000000000000000000000000000000000000000000002000000000000000000000000095dd27c0e4e2e7026f5265cd75792a6464d0e5bf000000000000000000000000000000000000000000000000000000000000002000000000000000000000000097ce613943a044f2b34af302f45aea4ac4f0188d",
        "nonce": "0x1f8",
        "chainId": "0xaa36a7"
      },
      "additionalContracts": [],
      "isFixedGasLimit": false
    }
  ],
  "receipts": [
    {
      "status": "0x1",
      "cumulativeGasUsed": "0xa22aa0",
      "logs": [
        {
          "address": "0xf07ee2d604f51be3e42a5420328cf9f1ede62253",
          "topics": [
            "0x8d340f17e19058004c20453540862a9c62778504476f6756755cb33bcd6c38c2"
          ],
          "data": "0x0000000000000000000000000000000000000000000000005fbc02272fbf20b70000000000000000000000000000000000000000000000000000000000000100000000000000000000000000000000000000000000000000000000000000000000000000000000000000000000000000000000000000000000000000000000000000000000000000000000000000000000000000000000000000000000000000000000000000000000000000000000000000000000000000000000000000000000000000000000000000000000000000000000000000000000000000000000000000000000000000000000000000000000000000000000000000000000000000000000000000000000000000000000000000000000000000000000000000002000000000000000000000000097ce613943a044f2b34af302f45aea4ac4f0188d",
          "blockHash": "0xdb22b7b4d274471d02c3628756b1e33e266b653cb046fd1b9124fd014cc11eec",
          "blockNumber": "0x88e1cc",
          "blockTimestamp": "0x689ba8e0",
          "transactionHash": "0xd069a6b9998cabcd79616462b9d048495c871f2d91a8f4de48f51c6c793857d3",
          "transactionIndex": "0x50",
          "logIndex": "0x78",
          "removed": false
        }
      ],
      "logsBloom": "0x00000000000000400000000000000000000000000000000000000000000000000000000000000000000000000000000000000000000000000004000000000000000000000000000040000000000000000000000000000000000000000000000000000000000000000000000000000000000000000000000000000000000000000000000000000000000000000000000000000000000000000000000000000000000800000000000000000000000000000000000000000000000000000000000000000000000000000000000000000000000000000000000000000000000000000000000000000000010000000000000000000000000000000100000000000000",
      "type": "0x2",
      "transactionHash": "0xd069a6b9998cabcd79616462b9d048495c871f2d91a8f4de48f51c6c793857d3",
      "transactionIndex": "0x50",
      "blockHash": "0xdb22b7b4d274471d02c3628756b1e33e266b653cb046fd1b9124fd014cc11eec",
      "blockNumber": "0x88e1cc",
      "gasUsed": "0x3ba1c",
      "effectiveGasPrice": "0x1e5e68",
      "from": "0x667c1abd4e25be048b8217f90fc576780cca8218",
      "to": "0xf07ee2d604f51be3e42a5420328cf9f1ede62253",
      "contractAddress": null
    }
  ],
  "libraries": [],
  "pending": [],
  "returns": {},
  "timestamp": 1755031777217,
  "chain": 11155111,
  "commit": "0fe5db8"
}