{
  "transactions": [
    {
      "hash": "0x2a9bf05af4c602b06eb26d210596a498b87a3641583d39a591ea33a43d28e95c",
      "transactionType": "CALL",
      "contractName": null,
      "contractAddress": "0xb3f468c5357c6757174be946bb3579f8fd907050",
      "function": "applyChainUpdates((uint64,bool,bytes,bytes,(bool,uint128,uint128),(bool,uint128,uint128))[])",
      "arguments": [
        "[(6898391096552792247, true, 0x00000000000000000000000097a2a515201c7e9d418c9c17fda10e25cc7e3279, 0x0000000000000000000000003a9ac806f25c210171ef823f53932e47cf8aa712, (false, 0, 0), (false, 0, 0))]"
      ],
      "transaction": {
        "from": "0x667c1abd4e25be048b8217f90fc576780cca8218",
        "to": "0xb3f468c5357c6757174be946bb3579f8fd907050",
        "gas": "0x525dc",
        "value": "0x0",
        "input": "0xdb6327dc0000000000000000000000000000000000000000000000000000000000000020000000000000000000000000000000000000000000000000000000000000000100000000000000000000000000000000000000000000000000000000000000200000000000000000000000000000000000000000000000005fbc02272fbf20b7000000000000000000000000000000000000000000000000000000000000000100000000000000000000000000000000000000000000000000000000000001400000000000000000000000000000000000000000000000000000000000000180000000000000000000000000000000000000000000000000000000000000000000000000000000000000000000000000000000000000000000000000000000000000000000000000000000000000000000000000000000000000000000000000000000000000000000000000000000000000000000000000000000000000000000000000000000000000000000000000000000000000000000000000000000000000000000000000000000000000000000000000000000000000000000000000000000000000000000000000000000000000000000000000000000000000002000000000000000000000000097a2a515201c7e9d418c9c17fda10e25cc7e327900000000000000000000000000000000000000000000000000000000000000200000000000000000000000003a9ac806f25c210171ef823f53932e47cf8aa712",
        "nonce": "0x1e4",
        "chainId": "0xaa36a7"
      },
      "additionalContracts": [],
      "isFixedGasLimit": false
    }
  ],
  "receipts": [
    {
      "status": "0x1",
      "cumulativeGasUsed": "0x1248e2d",
      "logs": [
        {
          "address": "0xb3f468c5357c6757174be946bb3579f8fd907050",
          "topics": [
            "0x8d340f17e19058004c20453540862a9c62778504476f6756755cb33bcd6c38c2"
          ],
          "data": "0x0000000000000000000000000000000000000000000000005fbc02272fbf20b7000000000000000000000000000000000000000000000000000000000000010000000000000000000000000000000000000000000000000000000000000000000000000000000000000000000000000000000000000000000000000000000000000000000000000000000000000000000000000000000000000000000000000000000000000000000000000000000000000000000000000000000000000000000000000000000000000000000000000000000000000000000000000000000000000000000000000000000000000000000000000000000000000000000000000000000000000000000000000000000000000000000000000000000000000000200000000000000000000000003a9ac806f25c210171ef823f53932e47cf8aa712",
          "blockHash": "0x73d32b04f26dfea086d379e26cf0546957286e07e7c8882cf5007d152a3f83d1",
          "blockNumber": "0x88d157",
          "blockTimestamp": "0x689ae010",
          "transactionHash": "0x2a9bf05af4c602b06eb26d210596a498b87a3641583d39a591ea33a43d28e95c",
          "transactionIndex": "0x97",
          "logIndex": "0x14b",
          "removed": false
        }
      ],
      "logsBloom": "0x00000000000000400000000000000000000000000000000000000000000000000000000000000000000000000000000000000000000000000004000000000000000000000000000000000000000000000000000000000000000000000000000000000000000000100000000000000000000000000000000000000000000000000000000000000000000000000000000000000000000000000000000000000000000000000000000000000000000008000010000000000000000000000000000000000000000000000000000000000000000000000000000000000000000000000000000000000000000000000000000000000000000000000100000000000000",
      "type": "0x2",
      "transactionHash": "0x2a9bf05af4c602b06eb26d210596a498b87a3641583d39a591ea33a43d28e95c",
      "transactionIndex": "0x97",
      "blockHash": "0x73d32b04f26dfea086d379e26cf0546957286e07e7c8882cf5007d152a3f83d1",
      "blockNumber": "0x88d157",
      "gasUsed": "0x3ba1c",
      "effectiveGasPrice": "0x145886",
      "from": "0x667c1abd4e25be048b8217f90fc576780cca8218",
      "to": "0xb3f468c5357c6757174be946bb3579f8fd907050",
      "contractAddress": null
    }
  ],
  "libraries": [],
  "pending": [],
  "returns": {},
  "timestamp": 1754980370794,
  "chain": 11155111,
  "commit": "0fe5db8"
}