{
  "transactions": [
    {
      "hash": "0x04d04c533bbccddf79b114db8c3ec4c1895b0cf461a2c38dbd979c80d27dad31",
      "transactionType": "CALL",
      "contractName": null,
      "contractAddress": "0x779877a7b0d9e8603169ddbd7836e478b4624789",
      "function": "approve(address,uint256)",
      "arguments": [
        "0x0BF3dE8c5D3e8A2B34D2BEeB17ABfCeBaf363A59",
        "13193228792873308"
      ],
      "transaction": {
        "from": "0x667c1abd4e25be048b8217f90fc576780cca8218",
        "to": "0x779877a7b0d9e8603169ddbd7836e478b4624789",
        "gas": "0x1081f",
        "value": "0x0",
        "input": "0x095ea7b30000000000000000000000000bf3de8c5d3e8a2b34d2beeb17abfcebaf363a59000000000000000000000000000000000000000000000000002edf2bf3a3c15c",
        "nonce": "0x20e",
        "chainId": "0xaa36a7"
      },
      "additionalContracts": [],
      "isFixedGasLimit": false
    },
    {
      "hash": "0x023598b395625d5e03f2379b174aca14b01b38d3496a9e4017a7acb7e2f4e462",
      "transactionType": "CALL",
      "contractName": null,
      "contractAddress": "0xd4cfe90b37520b542ae259fcb522513c83a34ac8",
      "function": "approve(address,uint256)",
      "arguments": [
        "0x0BF3dE8c5D3e8A2B34D2BEeB17ABfCeBaf363A59",
        "100000"
      ],
      "transaction": {
        "from": "0x667c1abd4e25be048b8217f90fc576780cca8218",
        "to": "0xd4cfe90b37520b542ae259fcb522513c83a34ac8",
        "gas": "0x10c27",
        "value": "0x0",
        "input": "0x095ea7b30000000000000000000000000bf3de8c5d3e8a2b34d2beeb17abfcebaf363a5900000000000000000000000000000000000000000000000000000000000186a0",
        "nonce": "0x20f",
        "chainId": "0xaa36a7"
      },
      "additionalContracts": [],
      "isFixedGasLimit": false
    },
    {
      "hash": "0x4a293190ac060bef8753298445367470e1a4a3481272d6f211a7f3bfc37d5bd0",
      "transactionType": "CALL",
      "contractName": null,
      "contractAddress": "0x0bf3de8c5d3e8a2b34d2beeb17abfcebaf363a59",
      "function": "ccipSend(uint64,(bytes,bytes,(address,uint256)[],address,bytes))",
      "arguments": [
        "6898391096552792247",
        "(0x000000000000000000000000667c1abd4e25be048b8217f90fc576780cca8218, 0x, [(0xd4Cfe90b37520B542ae259fcb522513c83A34ac8, 100000)], 0x779877A7B0D9E8603169DdbD7836e478b4624789, 0x97a657c90000000000000000000000000000000000000000000000000000000000000000)"
      ],
      "transaction": {
        "from": "0x667c1abd4e25be048b8217f90fc576780cca8218",
        "to": "0x0bf3de8c5d3e8a2b34d2beeb17abfcebaf363a59",
        "gas": "0x60464",
        "value": "0x0",
        "input": "0x96f4e9f90000000000000000000000000000000000000000000000005fbc02272fbf20b7000000000000000000000000000000000000000000000000000000000000004000000000000000000000000000000000000000000000000000000000000000a000000000000000000000000000000000000000000000000000000000000000e00000000000000000000000000000000000000000000000000000000000000100000000000000000000000000779877a7b0d9e8603169ddbd7836e478b462478900000000000000000000000000000000000000000000000000000000000001600000000000000000000000000000000000000000000000000000000000000020000000000000000000000000667c1abd4e25be048b8217f90fc576780cca821800000000000000000000000000000000000000000000000000000000000000000000000000000000000000000000000000000000000000000000000000000001000000000000000000000000d4cfe90b37520b542ae259fcb522513c83a34ac800000000000000000000000000000000000000000000000000000000000186a0000000000000000000000000000000000000000000000000000000000000002497a657c9000000000000000000000000000000000000000000000000000000000000000000000000000000000000000000000000000000000000000000000000",
        "nonce": "0x210",
        "chainId": "0xaa36a7"
      },
      "additionalContracts": [],
      "isFixedGasLimit": false
    }
  ],
  "receipts": [
    {
      "status": "0x1",
      "cumulativeGasUsed": "0xf368a2",
      "logs": [
        {
          "address": "0x779877a7b0d9e8603169ddbd7836e478b4624789",
          "topics": [
            "0x8c5be1e5ebec7d5bd14f71427d1e84f3dd0314c0f7b2291e5b200ac8c7c3b925",
            "0x000000000000000000000000667c1abd4e25be048b8217f90fc576780cca8218",
            "0x0000000000000000000000000bf3de8c5d3e8a2b34d2beeb17abfcebaf363a59"
          ],
          "data": "0x000000000000000000000000000000000000000000000000002edf2bf3a3c15c",
          "blockHash": "0x56f471e5befe4f0b9f272d8c413a60a71532b3e6b73dbe099d7074323c1dbe56",
          "blockNumber": "0x88e261",
          "blockTimestamp": "0x689bb00c",
          "transactionHash": "0x04d04c533bbccddf79b114db8c3ec4c1895b0cf461a2c38dbd979c80d27dad31",
          "transactionIndex": "0x72",
          "logIndex": "0xdf",
          "removed": false
        }
      ],
      "logsBloom": "0x00000004000040000002000000000000000000000000000000000000000000000000000000000000000000000000000000000000000000000000000000200000000000000000000000000080000000000000000000000000000000000000000000000000000100000000000000000000000000000000000000000000000000000000000000000000000000000008800000000000000000000000000000000000020000000000080000000000000000000000000000000000000000000000000000000000000000000000000000000000000000000000000100000000000000000010000000000000000000000000000000000000000000000000000000000000",
      "type": "0x2",
      "transactionHash": "0x04d04c533bbccddf79b114db8c3ec4c1895b0cf461a2c38dbd979c80d27dad31",
      "transactionIndex": "0x72",
      "blockHash": "0x56f471e5befe4f0b9f272d8c413a60a71532b3e6b73dbe099d7074323c1dbe56",
      "blockNumber": "0x88e261",
      "gasUsed": "0xb499",
      "effectiveGasPrice": "0x1eb883",
      "from": "0x667c1abd4e25be048b8217f90fc576780cca8218",
      "to": "0x779877a7b0d9e8603169ddbd7836e478b4624789",
      "contractAddress": null
    },
    {
      "status": "0x1",
      "cumulativeGasUsed": "0xf41ffd",
      "logs": [
        {
          "address": "0xd4cfe90b37520b542ae259fcb522513c83a34ac8",
          "topics": [
            "0x8c5be1e5ebec7d5bd14f71427d1e84f3dd0314c0f7b2291e5b200ac8c7c3b925",
            "0x000000000000000000000000667c1abd4e25be048b8217f90fc576780cca8218",
            "0x0000000000000000000000000bf3de8c5d3e8a2b34d2beeb17abfcebaf363a59"
          ],
          "data": "0x00000000000000000000000000000000000000000000000000000000000186a0",
          "blockHash": "0x56f471e5befe4f0b9f272d8c413a60a71532b3e6b73dbe099d7074323c1dbe56",
          "blockNumber": "0x88e261",
          "blockTimestamp": "0x689bb00c",
          "transactionHash": "0x023598b395625d5e03f2379b174aca14b01b38d3496a9e4017a7acb7e2f4e462",
          "transactionIndex": "0x73",
          "logIndex": "0xe0",
          "removed": false
        }
      ],
      "logsBloom": "0x00000000000040000002000000000008000000000000000000000000000100000000000000000000000000000000000000000000000000000000000000200000000000000000000000000080000000000000000000000000000000000000000000000000000100000000000000000000000000000000000000000000000100000000000000000000000000000008000000000000000000000000000000000000020000000000080000000000000000000000000000000000000000000000000000000000000000000000000000000000000000000000000000000000000000000010000000000000000000000000000000000000000000000000000000000000",
      "type": "0x2",
      "transactionHash": "0x023598b395625d5e03f2379b174aca14b01b38d3496a9e4017a7acb7e2f4e462",
      "transactionIndex": "0x73",
      "blockHash": "0x56f471e5befe4f0b9f272d8c413a60a71532b3e6b73dbe099d7074323c1dbe56",
      "blockNumber": "0x88e261",
      "gasUsed": "0xb75b",
      "effectiveGasPrice": "0x1eb883",
      "from": "0x667c1abd4e25be048b8217f90fc576780cca8218",
      "to": "0xd4cfe90b37520b542ae259fcb522513c83a34ac8",
      "contractAddress": null
    },
    {
      "status": "0x1",
      "cumulativeGasUsed": "0xf83d40",
      "logs": [
        {
          "address": "0x779877a7b0d9e8603169ddbd7836e478b4624789",
          "topics": [
            "0xddf252ad1be2c89b69c2b068fc378daa952ba7f163c4a11628f55a4df523b3ef",
            "0x000000000000000000000000667c1abd4e25be048b8217f90fc576780cca8218",
            "0x000000000000000000000000a2865e4f36760f5fa5c8f958336120f2df0d974b"
          ],
          "data": "0x000000000000000000000000000000000000000000000000002edf2bf3a3c15c",
          "blockHash": "0x56f471e5befe4f0b9f272d8c413a60a71532b3e6b73dbe099d7074323c1dbe56",
          "blockNumber": "0x88e261",
          "blockTimestamp": "0x689bb00c",
          "transactionHash": "0x4a293190ac060bef8753298445367470e1a4a3481272d6f211a7f3bfc37d5bd0",
          "transactionIndex": "0x74",
          "logIndex": "0xe1",
          "removed": false
        },
        {
          "address": "0x779877a7b0d9e8603169ddbd7836e478b4624789",
          "topics": [
            "0x8c5be1e5ebec7d5bd14f71427d1e84f3dd0314c0f7b2291e5b200ac8c7c3b925",
            "0x000000000000000000000000667c1abd4e25be048b8217f90fc576780cca8218",
            "0x0000000000000000000000000bf3de8c5d3e8a2b34d2beeb17abfcebaf363a59"
          ],
          "data": "0x0000000000000000000000000000000000000000000000000000000000000000",
          "blockHash": "0x56f471e5befe4f0b9f272d8c413a60a71532b3e6b73dbe099d7074323c1dbe56",
          "blockNumber": "0x88e261",
          "blockTimestamp": "0x689bb00c",
          "transactionHash": "0x4a293190ac060bef8753298445367470e1a4a3481272d6f211a7f3bfc37d5bd0",
          "transactionIndex": "0x74",
          "logIndex": "0xe2",
          "removed": false
        },
        {
          "address": "0xd4cfe90b37520b542ae259fcb522513c83a34ac8",
          "topics": [
            "0xddf252ad1be2c89b69c2b068fc378daa952ba7f163c4a11628f55a4df523b3ef",
            "0x0000000000000000000000000000000000000000000000000000000000000000",
            "0x000000000000000000000000667c1abd4e25be048b8217f90fc576780cca8218"
          ],
          "data": "0x0000000000000000000000000000000000000000000000000000000000000000",
          "blockHash": "0x56f471e5befe4f0b9f272d8c413a60a71532b3e6b73dbe099d7074323c1dbe56",
          "blockNumber": "0x88e261",
          "blockTimestamp": "0x689bb00c",
          "transactionHash": "0x4a293190ac060bef8753298445367470e1a4a3481272d6f211a7f3bfc37d5bd0",
          "transactionIndex": "0x74",
          "logIndex": "0xe3",
          "removed": false
        },
        {
          "address": "0xd4cfe90b37520b542ae259fcb522513c83a34ac8",
          "topics": [
            "0xddf252ad1be2c89b69c2b068fc378daa952ba7f163c4a11628f55a4df523b3ef",
            "0x0000000000000000000000000000000000000000000000000000000000000000",
            "0x000000000000000000000000b8fbf532e20316372a355b6f70c53b2089ddb627"
          ],
          "data": "0x0000000000000000000000000000000000000000000000000000000000000000",
          "blockHash": "0x56f471e5befe4f0b9f272d8c413a60a71532b3e6b73dbe099d7074323c1dbe56",
          "blockNumber": "0x88e261",
          "blockTimestamp": "0x689bb00c",
          "transactionHash": "0x4a293190ac060bef8753298445367470e1a4a3481272d6f211a7f3bfc37d5bd0",
          "transactionIndex": "0x74",
          "logIndex": "0xe4",
          "removed": false
        },
        {
          "address": "0xd4cfe90b37520b542ae259fcb522513c83a34ac8",
          "topics": [
            "0xddf252ad1be2c89b69c2b068fc378daa952ba7f163c4a11628f55a4df523b3ef",
            "0x000000000000000000000000667c1abd4e25be048b8217f90fc576780cca8218",
            "0x000000000000000000000000b8fbf532e20316372a355b6f70c53b2089ddb627"
          ],
          "data": "0x00000000000000000000000000000000000000000000000000000000000186a0",
          "blockHash": "0x56f471e5befe4f0b9f272d8c413a60a71532b3e6b73dbe099d7074323c1dbe56",
          "blockNumber": "0x88e261",
          "blockTimestamp": "0x689bb00c",
          "transactionHash": "0x4a293190ac060bef8753298445367470e1a4a3481272d6f211a7f3bfc37d5bd0",
          "transactionIndex": "0x74",
          "logIndex": "0xe5",
          "removed": false
        },
        {
          "address": "0xd4cfe90b37520b542ae259fcb522513c83a34ac8",
          "topics": [
            "0xddf252ad1be2c89b69c2b068fc378daa952ba7f163c4a11628f55a4df523b3ef",
            "0x0000000000000000000000000000000000000000000000000000000000000000",
            "0x000000000000000000000000b8fbf532e20316372a355b6f70c53b2089ddb627"
          ],
          "data": "0x0000000000000000000000000000000000000000000000000000000000000000",
          "blockHash": "0x56f471e5befe4f0b9f272d8c413a60a71532b3e6b73dbe099d7074323c1dbe56",
          "blockNumber": "0x88e261",
          "blockTimestamp": "0x689bb00c",
          "transactionHash": "0x4a293190ac060bef8753298445367470e1a4a3481272d6f211a7f3bfc37d5bd0",
          "transactionIndex": "0x74",
          "logIndex": "0xe6",
          "removed": false
        },
        {
          "address": "0xd4cfe90b37520b542ae259fcb522513c83a34ac8",
          "topics": [
            "0xddf252ad1be2c89b69c2b068fc378daa952ba7f163c4a11628f55a4df523b3ef",
            "0x000000000000000000000000b8fbf532e20316372a355b6f70c53b2089ddb627",
            "0x0000000000000000000000000000000000000000000000000000000000000000"
          ],
          "data": "0x00000000000000000000000000000000000000000000000000000000000186a0",
          "blockHash": "0x56f471e5befe4f0b9f272d8c413a60a71532b3e6b73dbe099d7074323c1dbe56",
          "blockNumber": "0x88e261",
          "blockTimestamp": "0x689bb00c",
          "transactionHash": "0x4a293190ac060bef8753298445367470e1a4a3481272d6f211a7f3bfc37d5bd0",
          "transactionIndex": "0x74",
          "logIndex": "0xe7",
          "removed": false
        },
        {
          "address": "0xa2865e4f36760f5fa5c8f958336120f2df0d974b",
          "topics": [
            "0xd0c3c799bf9e2639de44391e7f524d229b2b55f5b1ea94b2bf7da42f7243dddd"
          ],
          "data": "0x0000000000000000000000000000000000000000000000000000000000000020000000000000000000000000000000000000000000000000de41ba4fc9d91ad9000000000000000000000000667c1abd4e25be048b8217f90fc576780cca8218000000000000000000000000667c1abd4e25be048b8217f90fc576780cca821800000000000000000000000000000000000000000000000000000000000002cb000000000000000000000000000000000000000000000000000000000000000000000000000000000000000000000000000000000000000000000000000000000000000000000000000000000000000000000000000000000000000000000001000000000000000000000000779877a7b0d9e8603169ddbd7836e478b4624789000000000000000000000000000000000000000000000000002edf2bf3a3c15c00000000000000000000000000000000000000000000000000000000000001a000000000000000000000000000000000000000000000000000000000000001c00000000000000000000000000000000000000000000000000000000000000220f21f4266acb04d0f2344293e276e824b3fe52efc903faea61e22d3d3eff623af00000000000000000000000000000000000000000000000000000000000000000000000000000000000000000000000000000000000000000000000000000001000000000000000000000000d4cfe90b37520b542ae259fcb522513c83a34ac800000000000000000000000000000000000000000000000000000000000186a00000000000000000000000000000000000000000000000000000000000000001000000000000000000000000000000000000000000000000000000000000002000000000000000000000000000000000000000000000000000000000000001600000000000000000000000000000000000000000000000000000000000000020000000000000000000000000000000000000000000000000000000000000008000000000000000000000000000000000000000000000000000000000000000c000000000000000000000000000000000000000000000000000000000000001000000000000000000000000000000000000000000000000000000000000015f900000000000000000000000000000000000000000000000000000000000000020000000000000000000000000b8fbf532e20316372a355b6f70c53b2089ddb6270000000000000000000000000000000000000000000000000000000000000020000000000000000000000000cce3aa8c657ccc5b9af3037c9dd2dfffeabde88900000000000000000000000000000000000000000000000000000000000000200000000000000000000000000000000000000000000000000000000ba43b7400",
          "blockHash": "0x56f471e5befe4f0b9f272d8c413a60a71532b3e6b73dbe099d7074323c1dbe56",
          "blockNumber": "0x88e261",
          "blockTimestamp": "0x689bb00c",
          "transactionHash": "0x4a293190ac060bef8753298445367470e1a4a3481272d6f211a7f3bfc37d5bd0",
          "transactionIndex": "0x74",
          "logIndex": "0xe8",
          "removed": false
        }
      ],
      "logsBloom": "0x00000004000040000002000000000008000000000000000000000000000100000000000000000000000000000000000000000000000000000000000000200000000000000000000000000088000000000000000000000000000000000000000010000000020100000000000000000800000000000000100000000010000100000000000000000040000000000008800000000000000000000000000000000008020000000000080400000000000000000000000000000000000100010000000000000002000000000000000000000000000000000100000100000000000820000010800000000000000000000000000004000800000000000000000000000000",
      "type": "0x2",
      "transactionHash": "0x4a293190ac060bef8753298445367470e1a4a3481272d6f211a7f3bfc37d5bd0",
      "transactionIndex": "0x74",
      "blockHash": "0x56f471e5befe4f0b9f272d8c413a60a71532b3e6b73dbe099d7074323c1dbe56",
      "blockNumber": "0x88e261",
      "gasUsed": "0x41d43",
      "effectiveGasPrice": "0x1eb883",
      "from": "0x667c1abd4e25be048b8217f90fc576780cca8218",
      "to": "0x0bf3de8c5d3e8a2b34d2beeb17abfcebaf363a59",
      "contractAddress": null
    }
  ],
  "libraries": [],
  "pending": [],
  "returns": {},
  "timestamp": 1755033612476,
  "chain": 11155111,
  "commit": "0fe5db8"
}