{
  "transactions": [
    {
      "hash": "0x747cba9fcf37a565b7e9280c5c5d7894a3c155539d7eb36218c1864159f3f3fc",
      "transactionType": "CALL",
      "contractName": null,
      "contractAddress": "0xb4fc42092fecc374048388fe8586790e5fbf4d7c",
      "function": "grantMintAndBurnRole(address)",
      "arguments": [
        "0xbe40a17F84a36Df8faCd522227376ce28D9FAf79"
      ],
      "transaction": {
        "from": "0x667c1abd4e25be048b8217f90fc576780cca8218",
        "to": "0xb4fc42092fecc374048388fe8586790e5fbf4d7c",
        "gas": "0x11789",
        "value": "0x0",
        "input": "0x7cfb3d71000000000000000000000000be40a17f84a36df8facd522227376ce28d9faf79",
        "nonce": "0x1fc",
        "chainId": "0xaa36a7"
      },
      "additionalContracts": [],
      "isFixedGasLimit": false
    }
  ],
  "receipts": [
    {
      "status": "0x1",
      "cumulativeGasUsed": "0xa622cb",
      "logs": [
        {
          "address": "0xb4fc42092fecc374048388fe8586790e5fbf4d7c",
          "topics": [
            "0x2f8788117e7eff1d82e926ec794901d17c78024a50270940304540a733656f0d",
            "0x7429555b03aa5cf08cc5fc0890c97db295c9cec5e6bb1544bcd7fd1430dae3e2",
            "0x000000000000000000000000be40a17f84a36df8facd522227376ce28d9faf79",
            "0x000000000000000000000000667c1abd4e25be048b8217f90fc576780cca8218"
          ],
          "data": "0x",
          "blockHash": "0x1c7b9ce23ae25f1c38c1e277ec951c5a99a49dd216fdbef0cd153dad036612fd",
          "blockNumber": "0x88e202",
          "blockTimestamp": "0x689bab74",
          "transactionHash": "0x747cba9fcf37a565b7e9280c5c5d7894a3c155539d7eb36218c1864159f3f3fc",
          "transactionIndex": "0x45",
          "logIndex": "0x8c",
          "removed": false
        }
      ],
      "logsBloom": "0x00000004004000000002000000000000000000000000000000000000000000000000000000000000000000000000000000000000000000000000000000010000000000000000000000000080000000000000000000000000000000000000000000000000000000000000000020000000000000000000000000000000000000000000000000000000000000000008000000000000000000000000000000000000000000000000010000000000000000000000000000000004001000000000001000000000040000000000000000020000000000000000000100000000000000000000000004000000000000000000000000000000000000000000000000000000",
      "type": "0x2",
      "transactionHash": "0x747cba9fcf37a565b7e9280c5c5d7894a3c155539d7eb36218c1864159f3f3fc",
      "transactionIndex": "0x45",
      "blockHash": "0x1c7b9ce23ae25f1c38c1e277ec951c5a99a49dd216fdbef0cd153dad036612fd",
      "blockNumber": "0x88e202",
      "gasUsed": "0xbf23",
      "effectiveGasPrice": "0x1da058",
      "from": "0x667c1abd4e25be048b8217f90fc576780cca8218",
      "to": "0xb4fc42092fecc374048388fe8586790e5fbf4d7c",
      "contractAddress": null
    }
  ],
  "libraries": [],
  "pending": [],
  "returns": {},
  "timestamp": 1755032436702,
  "chain": 11155111,
  "commit": "0fe5db8"
}