{
  "transactions": [
    {
      "hash": "0x75df834b8b60b51481b2eba1682ec54c8cc1b902a215e0fa28d8e9754b61c108",
      "transactionType": "CALL",
      "contractName": null,
      "contractAddress": "0xeca5a6cd9a1642906de4ba1092ed105ef4f6921e",
      "function": "grantMintAndBurnRole(address)",
      "arguments": [
        "0x3CFeBbcC264fEcFbb3A1b696A7e971553E02c43f"
      ],
      "transaction": {
        "from": "0x667c1abd4e25be048b8217f90fc576780cca8218",
        "to": "0xeca5a6cd9a1642906de4ba1092ed105ef4f6921e",
        "gas": "0x11789",
        "value": "0x0",
        "input": "0x7cfb3d710000000000000000000000003cfebbcc264fecfbb3a1b696a7e971553e02c43f",
        "nonce": "0x1cc",
        "chainId": "0xaa36a7"
      },
      "additionalContracts": [],
      "isFixedGasLimit": false
    }
  ],
  "receipts": [
    {
      "status": "0x1",
      "cumulativeGasUsed": "0xd3b4ac",
      "logs": [
        {
          "address": "0xeca5a6cd9a1642906de4ba1092ed105ef4f6921e",
          "topics": [
            "0x2f8788117e7eff1d82e926ec794901d17c78024a50270940304540a733656f0d",
            "0x7429555b03aa5cf08cc5fc0890c97db295c9cec5e6bb1544bcd7fd1430dae3e2",
            "0x0000000000000000000000003cfebbcc264fecfbb3a1b696a7e971553e02c43f",
            "0x000000000000000000000000667c1abd4e25be048b8217f90fc576780cca8218"
          ],
          "data": "0x",
          "blockHash": "0xc082865b6512c96f45fcebb656122bbfbbaf66da8a9ecfe0491bcafd5970c3db",
          "blockNumber": "0x88d0b7",
          "blockTimestamp": "0x689ad884",
          "transactionHash": "0x75df834b8b60b51481b2eba1682ec54c8cc1b902a215e0fa28d8e9754b61c108",
          "transactionIndex": "0x8b",
          "logIndex": "0x114",
          "removed": false
        }
      ],
      "logsBloom": "0x00000004000000000002000000000000000000000000000000000000000000000000000000000000000000000000000000000000000000000000400000010000000004000000000000000080000000000000000000000000000000000000000000000000000000000000000000000000000000000000000000000000000000000400000000000000000000000008000000000000000000000000000000000000000000000000000000000000001000000000000000000004001000000000000000000000000000000000000000020000000000000000000100080000000000000200000000000000000000000000000000000000000000000000000000000000",
      "type": "0x2",
      "transactionHash": "0x75df834b8b60b51481b2eba1682ec54c8cc1b902a215e0fa28d8e9754b61c108",
      "transactionIndex": "0x8b",
      "blockHash": "0xc082865b6512c96f45fcebb656122bbfbbaf66da8a9ecfe0491bcafd5970c3db",
      "blockNumber": "0x88d0b7",
      "gasUsed": "0xbf23",
      "effectiveGasPrice": "0xf506a",
      "from": "0x667c1abd4e25be048b8217f90fc576780cca8218",
      "to": "0xeca5a6cd9a1642906de4ba1092ed105ef4f6921e",
      "contractAddress": null
    }
  ],
  "libraries": [],
  "pending": [],
  "returns": {},
  "timestamp": 1754978437369,
  "chain": 11155111,
  "commit": "0fe5db8"
}