{
  "transactions": [
    {
      "hash": "0xf33b06e265f4ad456ab27f1a0c8a18e8f9f1d04ce5bc226ad2113e4687e7f016",
      "transactionType": "CALL",
      "contractName": "RegistryModuleOwnerCustom",
      "contractAddress": "0x62e731218d0d47305aba2be3751e7ee9e5520790",
      "function": "registerAdminViaOwner(address)",
      "arguments": [
        "0xA4016b8E70F9fcFA3D5C4Ec7D9e33fC3D1586FBA"
      ],
      "transaction": {
        "from": "0x667c1abd4e25be048b8217f90fc576780cca8218",
        "to": "0x62e731218d0d47305aba2be3751e7ee9e5520790",
        "gas": "0x253de",
        "value": "0x0",
        "input": "0x96ea2f7a000000000000000000000000a4016b8e70f9fcfa3d5c4ec7d9e33fc3d1586fba",
        "nonce": "0x1e9",
        "chainId": "0xaa36a7"
      },
      "additionalContracts": [],
      "isFixedGasLimit": false
    },
    {
      "hash": "0xfe17401e83d2b0cff97dc58dc8efa1496c130b6693278fdf4f55ae6a3429a335",
      "transactionType": "CALL",
      "contractName": "TokenAdminRegistry",
      "contractAddress": "0x95f29fee11c5c55d26cccf1db6772de953b37b82",
      "function": "acceptAdminRole(address)",
      "arguments": [
        "0xA4016b8E70F9fcFA3D5C4Ec7D9e33fC3D1586FBA"
      ],
      "transaction": {
        "from": "0x667c1abd4e25be048b8217f90fc576780cca8218",
        "to": "0x95f29fee11c5c55d26cccf1db6772de953b37b82",
        "gas": "0x10611",
        "value": "0x0",
        "input": "0x156194da000000000000000000000000a4016b8e70f9fcfa3d5c4ec7d9e33fc3d1586fba",
        "nonce": "0x1ea",
        "chainId": "0xaa36a7"
      },
      "additionalContracts": [],
      "isFixedGasLimit": false
    },
    {
      "hash": "0x99ac4bec3543a45f643b4e19f303213e8198d904a88ed18d16a93083a058f8ff",
      "transactionType": "CALL",
      "contractName": "TokenAdminRegistry",
      "contractAddress": "0x95f29fee11c5c55d26cccf1db6772de953b37b82",
      "function": "setPool(address,address)",
      "arguments": [
        "0xA4016b8E70F9fcFA3D5C4Ec7D9e33fC3D1586FBA",
        "0x7E71eF01E1f34ea95d0dA3dd6C341482D4f77E51"
      ],
      "transaction": {
        "from": "0x667c1abd4e25be048b8217f90fc576780cca8218",
        "to": "0x95f29fee11c5c55d26cccf1db6772de953b37b82",
        "gas": "0x11a52",
        "value": "0x0",
        "input": "0x4e847fc7000000000000000000000000a4016b8e70f9fcfa3d5c4ec7d9e33fc3d1586fba0000000000000000000000007e71ef01e1f34ea95d0da3dd6c341482d4f77e51",
        "nonce": "0x1eb",
        "chainId": "0xaa36a7"
      },
      "additionalContracts": [],
      "isFixedGasLimit": false
    }
  ],
  "receipts": [
    {
      "status": "0x1",
      "cumulativeGasUsed": "0x101f693",
      "logs": [
        {
          "address": "0x95f29fee11c5c55d26cccf1db6772de953b37b82",
          "topics": [
            "0xc54c3051ff16e63bb9203214432372aca006c589e3653619b577a3265675b716",
            "0x000000000000000000000000a4016b8e70f9fcfa3d5c4ec7d9e33fc3d1586fba",
            "0x0000000000000000000000000000000000000000000000000000000000000000",
            "0x000000000000000000000000667c1abd4e25be048b8217f90fc576780cca8218"
          ],
          "data": "0x",
          "blockHash": "0x89f4ecf734ea137ee42ef001601f9abe9e8d0c303538ed4c24d55a754c792073",
          "blockNumber": "0x88d16d",
          "blockTimestamp": "0x689ae118",
          "transactionHash": "0xf33b06e265f4ad456ab27f1a0c8a18e8f9f1d04ce5bc226ad2113e4687e7f016",
          "transactionIndex": "0x81",
          "logIndex": "0x17b",
          "removed": false
        },
        {
          "address": "0x62e731218d0d47305aba2be3751e7ee9e5520790",
          "topics": [
            "0x09590fb70af4b833346363965e043a9339e8c7d378b8a2b903c75c277faec4f9",
            "0x000000000000000000000000a4016b8e70f9fcfa3d5c4ec7d9e33fc3d1586fba",
            "0x000000000000000000000000667c1abd4e25be048b8217f90fc576780cca8218"
          ],
          "data": "0x",
          "blockHash": "0x89f4ecf734ea137ee42ef001601f9abe9e8d0c303538ed4c24d55a754c792073",
          "blockNumber": "0x88d16d",
          "blockTimestamp": "0x689ae118",
          "transactionHash": "0xf33b06e265f4ad456ab27f1a0c8a18e8f9f1d04ce5bc226ad2113e4687e7f016",
          "transactionIndex": "0x81",
          "logIndex": "0x17c",
          "removed": false
        }
      ],
      "logsBloom": "0x000000000000000000420000000000000020000000000000000000000000000000000000000000000080000000000000000000000000008000000004000000000000000000400000000000c0000000000000000000000002000000000000000000000000020000000000000000000800000000000000000000000000000000000000000000000000000000000008000000000000000000000000000000000000000000000000000000000000000000000000000000000008000000000000000000000000400000000000000000000000000000000000000000000000000120000000000000000000000001000000000000000000000000000800020000004000",
      "type": "0x2",
      "transactionHash": "0xf33b06e265f4ad456ab27f1a0c8a18e8f9f1d04ce5bc226ad2113e4687e7f016",
      "transactionIndex": "0x81",
      "blockHash": "0x89f4ecf734ea137ee42ef001601f9abe9e8d0c303538ed4c24d55a754c792073",
      "blockNumber": "0x88d16d",
      "gasUsed": "0x1af66",
      "effectiveGasPrice": "0x16539f",
      "from": "0x667c1abd4e25be048b8217f90fc576780cca8218",
      "to": "0x62e731218d0d47305aba2be3751e7ee9e5520790",
      "contractAddress": null
    },
    {
      "status": "0x1",
      "cumulativeGasUsed": "0x102a9c4",
      "logs": [
        {
          "address": "0x95f29fee11c5c55d26cccf1db6772de953b37b82",
          "topics": [
            "0x399b55200f7f639a63d76efe3dcfa9156ce367058d6b673041b84a628885f5a7",
            "0x000000000000000000000000a4016b8e70f9fcfa3d5c4ec7d9e33fc3d1586fba",
            "0x000000000000000000000000667c1abd4e25be048b8217f90fc576780cca8218"
          ],
          "data": "0x",
          "blockHash": "0x89f4ecf734ea137ee42ef001601f9abe9e8d0c303538ed4c24d55a754c792073",
          "blockNumber": "0x88d16d",
          "blockTimestamp": "0x689ae118",
          "transactionHash": "0xfe17401e83d2b0cff97dc58dc8efa1496c130b6693278fdf4f55ae6a3429a335",
          "transactionIndex": "0x82",
          "logIndex": "0x17d",
          "removed": false
        }
      ],
      "logsBloom": "0x00000000000000000042000000000000000000000000001000000000000000000000000000000000000000000000000000000000000000800000000000000000000000000000000000000080000000000000000000000000000000000000000000000000000000000000000000000000000000000000000000000000000000000000000000000000000000000008000000000000000000000000000000000000000000000000000000000000000000000000000000000008000000000000000000000000000004000000000000000000000000000000000000000000000000000000000000000000000001000000000000000000000400000000020000004000",
      "type": "0x2",
      "transactionHash": "0xfe17401e83d2b0cff97dc58dc8efa1496c130b6693278fdf4f55ae6a3429a335",
      "transactionIndex": "0x82",
      "blockHash": "0x89f4ecf734ea137ee42ef001601f9abe9e8d0c303538ed4c24d55a754c792073",
      "blockNumber": "0x88d16d",
      "gasUsed": "0xb331",
      "effectiveGasPrice": "0x16539f",
      "from": "0x667c1abd4e25be048b8217f90fc576780cca8218",
      "to": "0x95f29fee11c5c55d26cccf1db6772de953b37b82",
      "contractAddress": null
    },
    {
      "status": "0x1",
      "cumulativeGasUsed": "0x103762a",
      "logs": [
        {
          "address": "0x95f29fee11c5c55d26cccf1db6772de953b37b82",
          "topics": [
            "0x754449ec3aff3bd528bfce43ae9319c4a381b67fcd1d20097b3b24dacaecc35d",
            "0x000000000000000000000000a4016b8e70f9fcfa3d5c4ec7d9e33fc3d1586fba",
            "0x0000000000000000000000000000000000000000000000000000000000000000",
            "0x0000000000000000000000007e71ef01e1f34ea95d0da3dd6c341482d4f77e51"
          ],
          "data": "0x",
          "blockHash": "0x89f4ecf734ea137ee42ef001601f9abe9e8d0c303538ed4c24d55a754c792073",
          "blockNumber": "0x88d16d",
          "blockTimestamp": "0x689ae118",
          "transactionHash": "0x99ac4bec3543a45f643b4e19f303213e8198d904a88ed18d16a93083a058f8ff",
          "transactionIndex": "0x83",
          "logIndex": "0x17e",
          "removed": false
        }
      ],
      "logsBloom": "0x00000000000400000040000000000000000000000200000000000000000000000000000000000000000000000000000000000000000000800000000000000000000000000000002000000000000000000000000001000000000000000000000000000000020000000000000000000800000000000000000000000000000000000000000000000000000000000000000000000000000000000000000000000000000000000000001000000000000000000000000000000008000000000000000000000000000000000000000000000000000000000000000000000000000020000000000000000000000001000000000000000000000000000000020001004000",
      "type": "0x2",
      "transactionHash": "0x99ac4bec3543a45f643b4e19f303213e8198d904a88ed18d16a93083a058f8ff",
      "transactionIndex": "0x83",
      "blockHash": "0x89f4ecf734ea137ee42ef001601f9abe9e8d0c303538ed4c24d55a754c792073",
      "blockNumber": "0x88d16d",
      "gasUsed": "0xcc66",
      "effectiveGasPrice": "0x16539f",
      "from": "0x667c1abd4e25be048b8217f90fc576780cca8218",
      "to": "0x95f29fee11c5c55d26cccf1db6772de953b37b82",
      "contractAddress": null
    }
  ],
  "libraries": [],
  "pending": [],
  "returns": {},
  "timestamp": 1754980632922,
  "chain": 11155111,
  "commit": "0fe5db8"
}