{
  "transactions": [
    {
      "hash": "0xd96b46cb9032a2595a51a3c5fe89220df787e225aedfd014cb9622b85bcb26fc",
      "transactionType": "CALL",
      "contractName": null,
      "contractAddress": "0xed4e22197e6e01efafbd9794aa6febe266d9e95d",
      "function": "grantMintAndBurnRole(address)",
      "arguments": [
        "0x58253b7ea272f5C2De4B2eFA0c47105282b6864e"
      ],
      "transaction": {
        "from": "0x667c1abd4e25be048b8217f90fc576780cca8218",
        "to": "0xed4e22197e6e01efafbd9794aa6febe266d9e95d",
        "gas": "0x11789",
        "value": "0x0",
        "input": "0x7cfb3d7100000000000000000000000058253b7ea272f5c2de4b2efa0c47105282b6864e",
        "nonce": "0x1d4",
        "chainId": "0xaa36a7"
      },
      "additionalContracts": [],
      "isFixedGasLimit": false
    }
  ],
  "receipts": [
    {
      "status": "0x1",
      "cumulativeGasUsed": "0x8d4b48",
      "logs": [
        {
          "address": "0xed4e22197e6e01efafbd9794aa6febe266d9e95d",
          "topics": [
            "0x2f8788117e7eff1d82e926ec794901d17c78024a50270940304540a733656f0d",
            "0x7429555b03aa5cf08cc5fc0890c97db295c9cec5e6bb1544bcd7fd1430dae3e2",
            "0x00000000000000000000000058253b7ea272f5c2de4b2efa0c47105282b6864e",
            "0x000000000000000000000000667c1abd4e25be048b8217f90fc576780cca8218"
          ],
          "data": "0x",
          "blockHash": "0x1e54181f056aebed3b373a6bb1e7965e7d62f1010c98d57e5cd710b4b78d3556",
          "blockNumber": "0x88d0e5",
          "blockTimestamp": "0x689adab8",
          "transactionHash": "0xd96b46cb9032a2595a51a3c5fe89220df787e225aedfd014cb9622b85bcb26fc",
          "transactionIndex": "0x4e",
          "logIndex": "0x93",
          "removed": false
        }
      ],
      "logsBloom": "0x00000004000000000002000000000000000000000000000000000000000000000000000000000000000000000000000000000000000000000000000000010000000000000000000000000080000000000000000000000000000000000000000000000000000000004000000000000000000000000010000000000000000000000000000000040040000000000008000000000000000000000001000000000000000000000000000000000000000000000000000000000004001000000000000000000000000000000000004000020000000000000000000100000000000000000000000000000000000000000000000000000000000000000000000000000000",
      "type": "0x2",
      "transactionHash": "0xd96b46cb9032a2595a51a3c5fe89220df787e225aedfd014cb9622b85bcb26fc",
      "transactionIndex": "0x4e",
      "blockHash": "0x1e54181f056aebed3b373a6bb1e7965e7d62f1010c98d57e5cd710b4b78d3556",
      "blockNumber": "0x88d0e5",
      "gasUsed": "0xbf23",
      "effectiveGasPrice": "0x126e42",
      "from": "0x667c1abd4e25be048b8217f90fc576780cca8218",
      "to": "0xed4e22197e6e01efafbd9794aa6febe266d9e95d",
      "contractAddress": null
    }
  ],
  "libraries": [],
  "pending": [],
  "returns": {},
  "timestamp": 1754979000573,
  "chain": 11155111,
  "commit": "0fe5db8"
}