{
  "transactions": [
    {
      "hash": "0x75e3e30b702c5c39c634f1e1a361043a80c3d267e8a0b3446907635fb146ed9a",
      "transactionType": "CALL",
      "contractName": null,
      "contractAddress": "0xb65448658c7b7b9e305a99a5e680e1a8016e99d5",
      "function": "grantMintAndBurnRole(address)",
      "arguments": [
        "0xa9c7aAC498AEE4AE92E2fb5D01df72710BA1aD3f"
      ],
      "transaction": {
        "from": "0x667c1abd4e25be048b8217f90fc576780cca8218",
        "to": "0xb65448658c7b7b9e305a99a5e680e1a8016e99d5",
        "gas": "0x11789",
        "value": "0x0",
        "input": "0x7cfb3d71000000000000000000000000a9c7aac498aee4ae92e2fb5d01df72710ba1ad3f",
        "nonce": "0x1c4",
        "chainId": "0xaa36a7"
      },
      "additionalContracts": [],
      "isFixedGasLimit": false
    }
  ],
  "receipts": [
    {
      "status": "0x1",
      "cumulativeGasUsed": "0xd103fd",
      "logs": [
        {
          "address": "0xb65448658c7b7b9e305a99a5e680e1a8016e99d5",
          "topics": [
            "0x2f8788117e7eff1d82e926ec794901d17c78024a50270940304540a733656f0d",
            "0x7429555b03aa5cf08cc5fc0890c97db295c9cec5e6bb1544bcd7fd1430dae3e2",
            "0x000000000000000000000000a9c7aac498aee4ae92e2fb5d01df72710ba1ad3f",
            "0x000000000000000000000000667c1abd4e25be048b8217f90fc576780cca8218"
          ],
          "data": "0x",
          "blockHash": "0xc6bfa2e2a986b16f2d0db400b7d7202776ed59efdb00318aff4476e6cb2a4743",
          "blockNumber": "0x88d09e",
          "blockTimestamp": "0x689ad758",
          "transactionHash": "0x75e3e30b702c5c39c634f1e1a361043a80c3d267e8a0b3446907635fb146ed9a",
          "transactionIndex": "0x70",
          "logIndex": "0x124",
          "removed": false
        }
      ],
      "logsBloom": "0x00000004000000000402000000000000000000000000000000000000000000000000000000000000000000000000000000000002000000000000000000010000000000000000000000000080000000000000000000000000000000000000000000000000000000000000000000000000000000000000000000000000000000000000080000000000000000000008000002000800000000000000200000000000000000000000000000000000000000000000000000000004001000000000000000000000000000000000000000020000000000000000000100000000000000000000000000000000000000000000000000000000000000000000000000000000",
      "type": "0x2",
      "transactionHash": "0x75e3e30b702c5c39c634f1e1a361043a80c3d267e8a0b3446907635fb146ed9a",
      "transactionIndex": "0x70",
      "blockHash": "0xc6bfa2e2a986b16f2d0db400b7d7202776ed59efdb00318aff4476e6cb2a4743",
      "blockNumber": "0x88d09e",
      "gasUsed": "0xbf23",
      "effectiveGasPrice": "0xf5bad",
      "from": "0x667c1abd4e25be048b8217f90fc576780cca8218",
      "to": "0xb65448658c7b7b9e305a99a5e680e1a8016e99d5",
      "contractAddress": null
    }
  ],
  "libraries": [],
  "pending": [],
  "returns": {},
  "timestamp": 1754978137155,
  "chain": 11155111,
  "commit": "0fe5db8"
}