{
  "transactions": [
    {
      "hash": "0x1e8808803502f130c6446c5463a4697596f3b1a510ca01de28534bc1dfc93ed8",
      "transactionType": "CALL",
      "contractName": null,
      "contractAddress": "0xa4016b8e70f9fcfa3d5c4ec7d9e33fc3d1586fba",
      "function": "grantMintAndBurnRole(address)",
      "arguments": [
        "0x7E71eF01E1f34ea95d0dA3dd6C341482D4f77E51"
      ],
      "transaction": {
        "from": "0x667c1abd4e25be048b8217f90fc576780cca8218",
        "to": "0xa4016b8e70f9fcfa3d5c4ec7d9e33fc3d1586fba",
        "gas": "0x11789",
        "value": "0x0",
        "input": "0x7cfb3d710000000000000000000000007e71ef01e1f34ea95d0da3dd6c341482d4f77e51",
        "nonce": "0x1e8",
        "chainId": "0xaa36a7"
      },
      "additionalContracts": [],
      "isFixedGasLimit": false
    }
  ],
  "receipts": [
    {
      "status": "0x1",
      "cumulativeGasUsed": "0x1b23518",
      "logs": [
        {
          "address": "0xa4016b8e70f9fcfa3d5c4ec7d9e33fc3d1586fba",
          "topics": [
            "0x2f8788117e7eff1d82e926ec794901d17c78024a50270940304540a733656f0d",
            "0x7429555b03aa5cf08cc5fc0890c97db295c9cec5e6bb1544bcd7fd1430dae3e2",
            "0x0000000000000000000000007e71ef01e1f34ea95d0da3dd6c341482d4f77e51",
            "0x000000000000000000000000667c1abd4e25be048b8217f90fc576780cca8218"
          ],
          "data": "0x",
          "blockHash": "0x0bec651206987607dff01d5c5e8ca847b9a9d060d3e7736a60df9d50e285c94b",
          "blockNumber": "0x88d16b",
          "blockTimestamp": "0x689ae100",
          "transactionHash": "0x1e8808803502f130c6446c5463a4697596f3b1a510ca01de28534bc1dfc93ed8",
          "transactionIndex": "0xae",
          "logIndex": "0x1b2",
          "removed": false
        }
      ],
      "logsBloom": "0x00000004000000000002000000000000000000100200020000000000000000000000000000000000000000000000000000000000000000000000000000010000000000000000002000000080000000000000000000000000000000000000000000000000000000000000000000000000000000000000000000000000000000000000000000000000000000000008000000000000000000000000000000000000000000000000001000000000000000000000000000000004001000000000000000000000000000000000000000020000000000000000000100000000000000000000000000000008000000000000000000000000000000000000000000000000",
      "type": "0x2",
      "transactionHash": "0x1e8808803502f130c6446c5463a4697596f3b1a510ca01de28534bc1dfc93ed8",
      "transactionIndex": "0xae",
      "blockHash": "0x0bec651206987607dff01d5c5e8ca847b9a9d060d3e7736a60df9d50e285c94b",
      "blockNumber": "0x88d16b",
      "gasUsed": "0xbf23",
      "effectiveGasPrice": "0x163d68",
      "from": "0x667c1abd4e25be048b8217f90fc576780cca8218",
      "to": "0xa4016b8e70f9fcfa3d5c4ec7d9e33fc3d1586fba",
      "contractAddress": null
    }
  ],
  "libraries": [],
  "pending": [],
  "returns": {},
  "timestamp": 1754980609113,
  "chain": 11155111,
  "commit": "0fe5db8"
}