{
  "transactions": [
    {
      "hash": "0x6256fb7e1fa38e3f13eddadfe43352142f5c2c89655f1dc40ff52d3c4a1cefad",
      "transactionType": "CALL",
      "contractName": "RegistryModuleOwnerCustom",
      "contractAddress": "0x62e731218d0d47305aba2be3751e7ee9e5520790",
      "function": "registerAdminViaOwner(address)",
      "arguments": [
        "0xEd4E22197e6e01eFafBD9794aA6febe266d9E95D"
      ],
      "transaction": {
        "from": "0x667c1abd4e25be048b8217f90fc576780cca8218",
        "to": "0x62e731218d0d47305aba2be3751e7ee9e5520790",
        "gas": "0x253de",
        "value": "0x0",
        "input": "0x96ea2f7a000000000000000000000000ed4e22197e6e01efafbd9794aa6febe266d9e95d",
        "nonce": "0x1d5",
        "chainId": "0xaa36a7"
      },
      "additionalContracts": [],
      "isFixedGasLimit": false
    },
    {
      "hash": "0x783ca4bc633a6a987c1cdce3c9352a601543ae0b53a05d01cde38588aae2d947",
      "transactionType": "CALL",
      "contractName": "TokenAdminRegistry",
      "contractAddress": "0x95f29fee11c5c55d26cccf1db6772de953b37b82",
      "function": "acceptAdminRole(address)",
      "arguments": [
        "0xEd4E22197e6e01eFafBD9794aA6febe266d9E95D"
      ],
      "transaction": {
        "from": "0x667c1abd4e25be048b8217f90fc576780cca8218",
        "to": "0x95f29fee11c5c55d26cccf1db6772de953b37b82",
        "gas": "0x10611",
        "value": "0x0",
        "input": "0x156194da000000000000000000000000ed4e22197e6e01efafbd9794aa6febe266d9e95d",
        "nonce": "0x1d6",
        "chainId": "0xaa36a7"
      },
      "additionalContracts": [],
      "isFixedGasLimit": false
    },
    {
      "hash": "0x26ed8463b6b8db25d63afc0a64fa5821cc0b9b1246403fe157198393aafcf835",
      "transactionType": "CALL",
      "contractName": "TokenAdminRegistry",
      "contractAddress": "0x95f29fee11c5c55d26cccf1db6772de953b37b82",
      "function": "setPool(address,address)",
      "arguments": [
        "0xEd4E22197e6e01eFafBD9794aA6febe266d9E95D",
        "0x58253b7ea272f5C2De4B2eFA0c47105282b6864e"
      ],
      "transaction": {
        "from": "0x667c1abd4e25be048b8217f90fc576780cca8218",
        "to": "0x95f29fee11c5c55d26cccf1db6772de953b37b82",
        "gas": "0x11a52",
        "value": "0x0",
        "input": "0x4e847fc7000000000000000000000000ed4e22197e6e01efafbd9794aa6febe266d9e95d00000000000000000000000058253b7ea272f5c2de4b2efa0c47105282b6864e",
        "nonce": "0x1d7",
        "chainId": "0xaa36a7"
      },
      "additionalContracts": [],
      "isFixedGasLimit": false
    }
  ],
  "receipts": [
    {
      "status": "0x1",
      "cumulativeGasUsed": "0xfa0578",
      "logs": [
        {
          "address": "0x95f29fee11c5c55d26cccf1db6772de953b37b82",
          "topics": [
            "0xc54c3051ff16e63bb9203214432372aca006c589e3653619b577a3265675b716",
            "0x000000000000000000000000ed4e22197e6e01efafbd9794aa6febe266d9e95d",
            "0x0000000000000000000000000000000000000000000000000000000000000000",
            "0x000000000000000000000000667c1abd4e25be048b8217f90fc576780cca8218"
          ],
          "data": "0x",
          "blockHash": "0xda85bf4544990c7883cac39ff8bb96a9cbd42bd726866e41ba6ac95f6e05adcc",
          "blockNumber": "0x88d0e7",
          "blockTimestamp": "0x689adad0",
          "transactionHash": "0x6256fb7e1fa38e3f13eddadfe43352142f5c2c89655f1dc40ff52d3c4a1cefad",
          "transactionIndex": "0x6a",
          "logIndex": "0xf1",
          "removed": false
        },
        {
          "address": "0x62e731218d0d47305aba2be3751e7ee9e5520790",
          "topics": [
            "0x09590fb70af4b833346363965e043a9339e8c7d378b8a2b903c75c277faec4f9",
            "0x000000000000000000000000ed4e22197e6e01efafbd9794aa6febe266d9e95d",
            "0x000000000000000000000000667c1abd4e25be048b8217f90fc576780cca8218"
          ],
          "data": "0x",
          "blockHash": "0xda85bf4544990c7883cac39ff8bb96a9cbd42bd726866e41ba6ac95f6e05adcc",
          "blockNumber": "0x88d0e7",
          "blockTimestamp": "0x689adad0",
          "transactionHash": "0x6256fb7e1fa38e3f13eddadfe43352142f5c2c89655f1dc40ff52d3c4a1cefad",
          "transactionIndex": "0x6a",
          "logIndex": "0xf2",
          "removed": false
        }
      ],
      "logsBloom": "0x000000000000000000020000000000000020000000000000000000000000000000000000000000000080000000000000000000000000000000000004000000000000000000400000000000c0000200000000000000000002080000000000004000000000020000000000000000000800000000000000000000000000000000000000000000000000000000000008000000000000000000000000000000000000000000000000000000000000000000000000000000000008000000000000000000000000400000000000000000000000000000000000000000000000000120000000000000000000000001000000000000000000000000000800020000000000",
      "type": "0x2",
      "transactionHash": "0x6256fb7e1fa38e3f13eddadfe43352142f5c2c89655f1dc40ff52d3c4a1cefad",
      "transactionIndex": "0x6a",
      "blockHash": "0xda85bf4544990c7883cac39ff8bb96a9cbd42bd726866e41ba6ac95f6e05adcc",
      "blockNumber": "0x88d0e7",
      "gasUsed": "0x1af66",
      "effectiveGasPrice": "0x121764",
      "from": "0x667c1abd4e25be048b8217f90fc576780cca8218",
      "to": "0x62e731218d0d47305aba2be3751e7ee9e5520790",
      "contractAddress": null
    },
    {
      "status": "0x1",
      "cumulativeGasUsed": "0xfab8a9",
      "logs": [
        {
          "address": "0x95f29fee11c5c55d26cccf1db6772de953b37b82",
          "topics": [
            "0x399b55200f7f639a63d76efe3dcfa9156ce367058d6b673041b84a628885f5a7",
            "0x000000000000000000000000ed4e22197e6e01efafbd9794aa6febe266d9e95d",
            "0x000000000000000000000000667c1abd4e25be048b8217f90fc576780cca8218"
          ],
          "data": "0x",
          "blockHash": "0xda85bf4544990c7883cac39ff8bb96a9cbd42bd726866e41ba6ac95f6e05adcc",
          "blockNumber": "0x88d0e7",
          "blockTimestamp": "0x689adad0",
          "transactionHash": "0x783ca4bc633a6a987c1cdce3c9352a601543ae0b53a05d01cde38588aae2d947",
          "transactionIndex": "0x6b",
          "logIndex": "0xf3",
          "removed": false
        }
      ],
      "logsBloom": "0x00000000000000000002000000000000000000000000001000000000000000000000000000000000000000000000000000000000000000000000000000000000000000000000000000000080000200000000000000000000080000000000004000000000000000000000000000000000000000000000000000000000000000000000000000000000000000000008000000000000000000000000000000000000000000000000000000000000000000000000000000000008000000000000000000000000000004000000000000000000000000000000000000000000000000000000000000000000000001000000000000000000000400000000020000000000",
      "type": "0x2",
      "transactionHash": "0x783ca4bc633a6a987c1cdce3c9352a601543ae0b53a05d01cde38588aae2d947",
      "transactionIndex": "0x6b",
      "blockHash": "0xda85bf4544990c7883cac39ff8bb96a9cbd42bd726866e41ba6ac95f6e05adcc",
      "blockNumber": "0x88d0e7",
      "gasUsed": "0xb331",
      "effectiveGasPrice": "0x121764",
      "from": "0x667c1abd4e25be048b8217f90fc576780cca8218",
      "to": "0x95f29fee11c5c55d26cccf1db6772de953b37b82",
      "contractAddress": null
    },
    {
      "status": "0x1",
      "cumulativeGasUsed": "0xfb850f",
      "logs": [
        {
          "address": "0x95f29fee11c5c55d26cccf1db6772de953b37b82",
          "topics": [
            "0x754449ec3aff3bd528bfce43ae9319c4a381b67fcd1d20097b3b24dacaecc35d",
            "0x000000000000000000000000ed4e22197e6e01efafbd9794aa6febe266d9e95d",
            "0x0000000000000000000000000000000000000000000000000000000000000000",
            "0x00000000000000000000000058253b7ea272f5c2de4b2efa0c47105282b6864e"
          ],
          "data": "0x",
          "blockHash": "0xda85bf4544990c7883cac39ff8bb96a9cbd42bd726866e41ba6ac95f6e05adcc",
          "blockNumber": "0x88d0e7",
          "blockTimestamp": "0x689adad0",
          "transactionHash": "0x26ed8463b6b8db25d63afc0a64fa5821cc0b9b1246403fe157198393aafcf835",
          "transactionIndex": "0x6c",
          "logIndex": "0xf4",
          "removed": false
        }
      ],
      "logsBloom": "0x00000000000400000000000000000000000000000000000000000000000000000000000000000000000000000000000000000000000000000000000000000000000000000000000000000000000200000000000001000000080000000000004000000000020000000000000000000800000000000000000000000000000000000000000000040040000000000000000000000000000000000000000000000000000000000000000000000000000000000000000000000008000000000000000000000000000000000000004000000000000000000000000000000000000020000000000000000000000001000000000000000000000000000000020001000000",
      "type": "0x2",
      "transactionHash": "0x26ed8463b6b8db25d63afc0a64fa5821cc0b9b1246403fe157198393aafcf835",
      "transactionIndex": "0x6c",
      "blockHash": "0xda85bf4544990c7883cac39ff8bb96a9cbd42bd726866e41ba6ac95f6e05adcc",
      "blockNumber": "0x88d0e7",
      "gasUsed": "0xcc66",
      "effectiveGasPrice": "0x121764",
      "from": "0x667c1abd4e25be048b8217f90fc576780cca8218",
      "to": "0x95f29fee11c5c55d26cccf1db6772de953b37b82",
      "contractAddress": null
    }
  ],
  "libraries": [],
  "pending": [],
  "returns": {},
  "timestamp": 1754979024901,
  "chain": 11155111,
  "commit": "0fe5db8"
}