{
  "transactions": [
    {
      "hash": "0xa14e60bcc3f1b6ac93b425cc9bd0bb54863eef4be7e5ac11e64905b83f0f9f76",
      "transactionType": "CALL",
      "contractName": "RegistryModuleOwnerCustom",
      "contractAddress": "0x62e731218d0d47305aba2be3751e7ee9e5520790",
      "function": "registerAdminViaOwner(address)",
      "arguments": [
        "0xB4FC42092Fecc374048388FE8586790e5FbF4d7c"
      ],
      "transaction": {
        "from": "0x667c1abd4e25be048b8217f90fc576780cca8218",
        "to": "0x62e731218d0d47305aba2be3751e7ee9e5520790",
        "gas": "0x253de",
        "value": "0x0",
        "input": "0x96ea2f7a000000000000000000000000b4fc42092fecc374048388fe8586790e5fbf4d7c",
        "nonce": "0x1fd",
        "chainId": "0xaa36a7"
      },
      "additionalContracts": [],
      "isFixedGasLimit": false
    },
    {
      "hash": "0x33523f92fb54ef4d6faec6738ed4d90f2a4962db8b0eb0f77917ad6c67d8b44a",
      "transactionType": "CALL",
      "contractName": "TokenAdminRegistry",
      "contractAddress": "0x95f29fee11c5c55d26cccf1db6772de953b37b82",
      "function": "acceptAdminRole(address)",
      "arguments": [
        "0xB4FC42092Fecc374048388FE8586790e5FbF4d7c"
      ],
      "transaction": {
        "from": "0x667c1abd4e25be048b8217f90fc576780cca8218",
        "to": "0x95f29fee11c5c55d26cccf1db6772de953b37b82",
        "gas": "0x10611",
        "value": "0x0",
        "input": "0x156194da000000000000000000000000b4fc42092fecc374048388fe8586790e5fbf4d7c",
        "nonce": "0x1fe",
        "chainId": "0xaa36a7"
      },
      "additionalContracts": [],
      "isFixedGasLimit": false
    },
    {
      "hash": "0x5d517622ff23a1585cd13518962006817dfdc5bdc20a2f7d0f27f9976a4dfa45",
      "transactionType": "CALL",
      "contractName": "TokenAdminRegistry",
      "contractAddress": "0x95f29fee11c5c55d26cccf1db6772de953b37b82",
      "function": "setPool(address,address)",
      "arguments": [
        "0xB4FC42092Fecc374048388FE8586790e5FbF4d7c",
        "0xbe40a17F84a36Df8faCd522227376ce28D9FAf79"
      ],
      "transaction": {
        "from": "0x667c1abd4e25be048b8217f90fc576780cca8218",
        "to": "0x95f29fee11c5c55d26cccf1db6772de953b37b82",
        "gas": "0x11a52",
        "value": "0x0",
        "input": "0x4e847fc7000000000000000000000000b4fc42092fecc374048388fe8586790e5fbf4d7c000000000000000000000000be40a17f84a36df8facd522227376ce28d9faf79",
        "nonce": "0x1ff",
        "chainId": "0xaa36a7"
      },
      "additionalContracts": [],
      "isFixedGasLimit": false
    }
  ],
  "receipts": [
    {
      "status": "0x1",
      "cumulativeGasUsed": "0x12981a1",
      "logs": [
        {
          "address": "0x95f29fee11c5c55d26cccf1db6772de953b37b82",
          "topics": [
            "0xc54c3051ff16e63bb9203214432372aca006c589e3653619b577a3265675b716",
            "0x000000000000000000000000b4fc42092fecc374048388fe8586790e5fbf4d7c",
            "0x0000000000000000000000000000000000000000000000000000000000000000",
            "0x000000000000000000000000667c1abd4e25be048b8217f90fc576780cca8218"
          ],
          "data": "0x",
          "blockHash": "0x950a1e0193adef97500f71bc58741934243af0214fe8512f711561a9997fea84",
          "blockNumber": "0x88e204",
          "blockTimestamp": "0x689bab8c",
          "transactionHash": "0xa14e60bcc3f1b6ac93b425cc9bd0bb54863eef4be7e5ac11e64905b83f0f9f76",
          "transactionIndex": "0x48",
          "logIndex": "0x85",
          "removed": false
        },
        {
          "address": "0x62e731218d0d47305aba2be3751e7ee9e5520790",
          "topics": [
            "0x09590fb70af4b833346363965e043a9339e8c7d378b8a2b903c75c277faec4f9",
            "0x000000000000000000000000b4fc42092fecc374048388fe8586790e5fbf4d7c",
            "0x000000000000000000000000667c1abd4e25be048b8217f90fc576780cca8218"
          ],
          "data": "0x",
          "blockHash": "0x950a1e0193adef97500f71bc58741934243af0214fe8512f711561a9997fea84",
          "blockNumber": "0x88e204",
          "blockTimestamp": "0x689bab8c",
          "transactionHash": "0xa14e60bcc3f1b6ac93b425cc9bd0bb54863eef4be7e5ac11e64905b83f0f9f76",
          "transactionIndex": "0x48",
          "logIndex": "0x86",
          "removed": false
        }
      ],
      "logsBloom": "0x000000000000000000020000000000000020000000000000000000000000000000000000000000000080000000000000000000000000000000000004000000000000000000400000000000c0000000000000000000000002000000000000000000000000020000000000000000000800000000000000000000000000000000000000000000000000000000000008000000000000000000000000000000000000000000000000000000000000000000000000000000000008000000000000000000000000400000000000000000000000000010000000000000000000000120000800000000000000000001000000000000000000000000000800020000000001",
      "type": "0x2",
      "transactionHash": "0xa14e60bcc3f1b6ac93b425cc9bd0bb54863eef4be7e5ac11e64905b83f0f9f76",
      "transactionIndex": "0x48",
      "blockHash": "0x950a1e0193adef97500f71bc58741934243af0214fe8512f711561a9997fea84",
      "blockNumber": "0x88e204",
      "gasUsed": "0x1af66",
      "effectiveGasPrice": "0x1f03c1",
      "from": "0x667c1abd4e25be048b8217f90fc576780cca8218",
      "to": "0x62e731218d0d47305aba2be3751e7ee9e5520790",
      "contractAddress": null
    },
    {
      "status": "0x1",
      "cumulativeGasUsed": "0x12a34d2",
      "logs": [
        {
          "address": "0x95f29fee11c5c55d26cccf1db6772de953b37b82",
          "topics": [
            "0x399b55200f7f639a63d76efe3dcfa9156ce367058d6b673041b84a628885f5a7",
            "0x000000000000000000000000b4fc42092fecc374048388fe8586790e5fbf4d7c",
            "0x000000000000000000000000667c1abd4e25be048b8217f90fc576780cca8218"
          ],
          "data": "0x",
          "blockHash": "0x950a1e0193adef97500f71bc58741934243af0214fe8512f711561a9997fea84",
          "blockNumber": "0x88e204",
          "blockTimestamp": "0x689bab8c",
          "transactionHash": "0x33523f92fb54ef4d6faec6738ed4d90f2a4962db8b0eb0f77917ad6c67d8b44a",
          "transactionIndex": "0x49",
          "logIndex": "0x87",
          "removed": false
        }
      ],
      "logsBloom": "0x00000000000000000002000000000000000000000000001000000000000000000000000000000000000000000000000000000000000000000000000000000000000000000000000000000080000000000000000000000000000000000000000000000000000000000000000000000000000000000000000000000000000000000000000000000000000000000008000000000000000000000000000000000000000000000000000000000000000000000000000000000008000000000000000000000000000004000000000000000000000010000000000000000000000000000800000000000000000001000000000000000000000400000000020000000001",
      "type": "0x2",
      "transactionHash": "0x33523f92fb54ef4d6faec6738ed4d90f2a4962db8b0eb0f77917ad6c67d8b44a",
      "transactionIndex": "0x49",
      "blockHash": "0x950a1e0193adef97500f71bc58741934243af0214fe8512f711561a9997fea84",
      "blockNumber": "0x88e204",
      "gasUsed": "0xb331",
      "effectiveGasPrice": "0x1f03c1",
      "from": "0x667c1abd4e25be048b8217f90fc576780cca8218",
      "to": "0x95f29fee11c5c55d26cccf1db6772de953b37b82",
      "contractAddress": null
    },
    {
      "status": "0x1",
      "cumulativeGasUsed": "0x12b0138",
      "logs": [
        {
          "address": "0x95f29fee11c5c55d26cccf1db6772de953b37b82",
          "topics": [
            "0x754449ec3aff3bd528bfce43ae9319c4a381b67fcd1d20097b3b24dacaecc35d",
            "0x000000000000000000000000b4fc42092fecc374048388fe8586790e5fbf4d7c",
            "0x0000000000000000000000000000000000000000000000000000000000000000",
            "0x000000000000000000000000be40a17f84a36df8facd522227376ce28d9faf79"
          ],
          "data": "0x",
          "blockHash": "0x950a1e0193adef97500f71bc58741934243af0214fe8512f711561a9997fea84",
          "blockNumber": "0x88e204",
          "blockTimestamp": "0x689bab8c",
          "transactionHash": "0x5d517622ff23a1585cd13518962006817dfdc5bdc20a2f7d0f27f9976a4dfa45",
          "transactionIndex": "0x4a",
          "logIndex": "0x88",
          "removed": false
        }
      ],
      "logsBloom": "0x00000000000400000000000000000000000000000000000000000000000000000000000000000000000000000000000000000000000000000000000000000000000000000000000000000000000000000000000001000000000000000000000000000000020000000000000020000800000000000000000000000000000000000000000000000000000000000000000000000000000000000000000000000000000000000000010000000000000000000000000000000008000000000000000000000000040000000000000000000000000010000000000000000000000020000800000000000000000001000000000000000000000000000000020001000001",
      "type": "0x2",
      "transactionHash": "0x5d517622ff23a1585cd13518962006817dfdc5bdc20a2f7d0f27f9976a4dfa45",
      "transactionIndex": "0x4a",
      "blockHash": "0x950a1e0193adef97500f71bc58741934243af0214fe8512f711561a9997fea84",
      "blockNumber": "0x88e204",
      "gasUsed": "0xcc66",
      "effectiveGasPrice": "0x1f03c1",
      "from": "0x667c1abd4e25be048b8217f90fc576780cca8218",
      "to": "0x95f29fee11c5c55d26cccf1db6772de953b37b82",
      "contractAddress": null
    }
  ],
  "libraries": [],
  "pending": [],
  "returns": {},
  "timestamp": 1755032459658,
  "chain": 11155111,
  "commit": "0fe5db8"
}